{
  "contractName": "InventoryContract",
  "abi": [
    {
      "constant": true,
      "inputs": [],
      "name": "itemCount",
      "outputs": [
        {
          "internalType": "uint256",
          "name": "",
          "type": "uint256"
        }
      ],
      "payable": false,
      "stateMutability": "view",
      "type": "function"
    },
    {
      "constant": true,
      "inputs": [
        {
          "internalType": "uint256",
          "name": "",
          "type": "uint256"
        }
      ],
      "name": "items",
      "outputs": [
        {
          "internalType": "uint256",
          "name": "id",
          "type": "uint256"
        },
        {
          "internalType": "string",
          "name": "name",
          "type": "string"
        },
        {
          "internalType": "uint256",
          "name": "quantity",
          "type": "uint256"
        }
      ],
      "payable": false,
      "stateMutability": "view",
      "type": "function"
    },
    {
      "constant": false,
      "inputs": [
        {
          "internalType": "uint256",
          "name": "_id",
          "type": "uint256"
        },
        {
          "internalType": "string",
          "name": "_name",
          "type": "string"
        },
        {
          "internalType": "uint256",
          "name": "_quantity",
          "type": "uint256"
        }
      ],
      "name": "addItem",
      "outputs": [],
      "payable": false,
      "stateMutability": "nonpayable",
      "type": "function"
    },
    {
      "constant": true,
      "inputs": [
        {
          "internalType": "uint256",
          "name": "_id",
          "type": "uint256"
        }
      ],
      "name": "getItem",
      "outputs": [
        {
          "internalType": "uint256",
          "name": "",
          "type": "uint256"
        },
        {
          "internalType": "string",
          "name": "",
          "type": "string"
        },
        {
          "internalType": "uint256",
          "name": "",
          "type": "uint256"
        }
      ],
      "payable": false,
      "stateMutability": "view",
      "type": "function"
    }
  ],
  "bytecode": "0x608060405234801561001057600080fd5b506105e6806100206000396000f3fe608060405234801561001057600080fd5b506004361061004c5760003560e01c80633129e773146100515780636bfb0d0114610106578063b776fc1514610124578063bfb231d2146101f3575b600080fd5b61007d6004803603602081101561006757600080fd5b81019080803590602001909291905050506102a8565b6040518084815260200180602001838152602001828103825284818151815260200191508051906020019080838360005b838110156100c95780820151818401526020810190506100ae565b50505050905090810190601f1680156100f65780820380516001836020036101000a031916815260200191505b5094505050505060405180910390f35b61010e6103ab565b6040518082815260200191505060405180910390f35b6101f16004803603606081101561013a57600080fd5b81019080803590602001909291908035906020019064010000000081111561016157600080fd5b82018360208201111561017357600080fd5b8035906020019184600183028401116401000000008311171561019557600080fd5b91908080601f016020809104026020016040519081016040528093929190818152602001838380828437600081840152601f19601f820116905080830192505050505050509192919290803590602001909291905050506103b1565b005b61021f6004803603602081101561020957600080fd5b8101908080359060200190929190505050610429565b6040518084815260200180602001838152602001828103825284818151815260200191508051906020019080838360005b8381101561026b578082015181840152602081019050610250565b50505050905090810190601f1680156102985780820380516001836020036101000a031916815260200191505b5094505050505060405180910390f35b6000606060006102b66104eb565b60008086815260200190815260200160002060405180606001604052908160008201548152602001600182018054600181600116156101000203166002900480601f0160208091040260200160405190810160405280929190818152602001828054600181600116156101000203166002900480156103765780601f1061034b57610100808354040283529160200191610376565b820191906000526020600020905b81548152906001019060200180831161035957829003601f168201915b505050505081526020016002820154815250509050806000015181602001518260400151819150935093509350509193909250565b60015481565b60405180606001604052808481526020018381526020018281525060008085815260200190815260200160002060008201518160000155602082015181600101908051906020019061040492919061050c565b5060408201518160020155905050600160008154809291906001019190505550505050565b6000602052806000526040600020600091509050806000015490806001018054600181600116156101000203166002900480601f0160208091040260200160405190810160405280929190818152602001828054600181600116156101000203166002900480156104db5780601f106104b0576101008083540402835291602001916104db565b820191906000526020600020905b8154815290600101906020018083116104be57829003601f168201915b5050505050908060020154905083565b60405180606001604052806000815260200160608152602001600081525090565b828054600181600116156101000203166002900490600052602060002090601f016020900481019282601f1061054d57805160ff191683800117855561057b565b8280016001018555821561057b579182015b8281111561057a57825182559160200191906001019061055f565b5b509050610588919061058c565b5090565b6105ae91905b808211156105aa576000816000905550600101610592565b5090565b9056fea265627a7a72315820fe76020016360f2244b7f1448834b2a98e5063b10869b0f4f8d7cb1759faa1d464736f6c63430005100032",
  "source": "pragma solidity ^0.5.16;\n\ncontract InventoryContract {\n    struct Item {\n        uint id;\n        string name;\n        uint quantity;\n    }\n\n    mapping(uint => Item) public items;\n    uint public itemCount; // Track number of items\n\n    function addItem(uint _id, string memory _name, uint _quantity) public {\n        items[_id] = Item(_id, _name, _quantity);\n        itemCount++; // Increment the item count\n    }\n\n    function getItem(uint _id) public view returns (uint, string memory, uint) {\n        Item memory item = items[_id];\n        return (item.id, item.name, item.quantity);\n    }\n}\n",
  "sourcePath": "/Users/I526523/Downloads/BITS NOTES/BlockChain/automotive-erp-blockchain/backend/contracts/InventoryContract.sol",
  "compiler": {
    "name": "solc",
    "version": "0.5.16+commit.9c3226ce.Emscripten.clang"
  },
  "schemaVersion": "3.4.16",
  "updatedAt": "2024-10-31T09:16:21.629Z",
  "networkType": "ethereum",
  "devdoc": {
    "methods": {}
  },
  "userdoc": {
    "methods": {}
  }
}