{
  "contractName": "ShipmentContract",
  "abi": [
    {
      "constant": true,
      "inputs": [],
      "name": "shipmentCount",
      "outputs": [
        {
          "internalType": "uint256",
          "name": "",
          "type": "uint256"
        }
      ],
      "payable": false,
      "stateMutability": "view",
      "type": "function"
    },
    {
      "constant": true,
      "inputs": [
        {
          "internalType": "uint256",
          "name": "",
          "type": "uint256"
        }
      ],
      "name": "shipments",
      "outputs": [
        {
          "internalType": "uint256",
          "name": "id",
          "type": "uint256"
        },
        {
          "internalType": "string",
          "name": "trackingNumber",
          "type": "string"
        },
        {
          "internalType": "string",
          "name": "status",
          "type": "string"
        }
      ],
      "payable": false,
      "stateMutability": "view",
      "type": "function"
    },
    {
      "constant": false,
      "inputs": [
        {
          "internalType": "string",
          "name": "_trackingNumber",
          "type": "string"
        },
        {
          "internalType": "string",
          "name": "_status",
          "type": "string"
        }
      ],
      "name": "createShipment",
      "outputs": [],
      "payable": false,
      "stateMutability": "nonpayable",
      "type": "function"
    },
    {
      "constant": false,
      "inputs": [
        {
          "internalType": "uint256",
          "name": "_id",
          "type": "uint256"
        },
        {
          "internalType": "string",
          "name": "_status",
          "type": "string"
        }
      ],
      "name": "updateStatus",
      "outputs": [],
      "payable": false,
      "stateMutability": "nonpayable",
      "type": "function"
    },
    {
      "constant": true,
      "inputs": [
        {
          "internalType": "uint256",
          "name": "_id",
          "type": "uint256"
        }
      ],
      "name": "getShipment",
      "outputs": [
        {
          "internalType": "uint256",
          "name": "",
          "type": "uint256"
        },
        {
          "internalType": "string",
          "name": "",
          "type": "string"
        },
        {
          "internalType": "string",
          "name": "",
          "type": "string"
        }
      ],
      "payable": false,
      "stateMutability": "view",
      "type": "function"
    }
  ],
  "bytecode": "0x608060405234801561001057600080fd5b50610b01806100206000396000f3fe608060405234801561001057600080fd5b50600436106100575760003560e01c8063092b37401461005c5780632ac08a93146101765780633def2b5214610290578063aace20b7146103e2578063d1b34dd814610400575b600080fd5b6100886004803603602081101561007257600080fd5b81019080803590602001909291905050506104c5565b604051808481526020018060200180602001838103835285818151815260200191508051906020019080838360005b838110156100d25780820151818401526020810190506100b7565b50505050905090810190601f1680156100ff5780820380516001836020036101000a031916815260200191505b50838103825284818151815260200191508051906020019080838360005b8381101561013857808201518184015260208101905061011d565b50505050905090810190601f1680156101655780820380516001836020036101000a031916815260200191505b509550505050505060405180910390f35b6101a26004803603602081101561018c57600080fd5b81019080803590602001909291905050506106e6565b604051808481526020018060200180602001838103835285818151815260200191508051906020019080838360005b838110156101ec5780820151818401526020810190506101d1565b50505050905090810190601f1680156102195780820380516001836020036101000a031916815260200191505b50838103825284818151815260200191508051906020019080838360005b83811015610252578082015181840152602081019050610237565b50505050905090810190601f16801561027f5780820380516001836020036101000a031916815260200191505b509550505050505060405180910390f35b6103e0600480360360408110156102a657600080fd5b81019080803590602001906401000000008111156102c357600080fd5b8201836020820111156102d557600080fd5b803590602001918460018302840111640100000000831117156102f757600080fd5b91908080601f016020809104026020016040519081016040528093929190818152602001838380828437600081840152601f19601f8201169050808301925050505050505091929192908035906020019064010000000081111561035a57600080fd5b82018360208201111561036c57600080fd5b8035906020019184600183028401116401000000008311171561038e57600080fd5b91908080601f016020809104026020016040519081016040528093929190818152602001838380828437600081840152601f19601f820116905080830192505050505050509192919290505050610840565b005b6103ea6108ce565b6040518082815260200191505060405180910390f35b6104c36004803603604081101561041657600080fd5b81019080803590602001909291908035906020019064010000000081111561043d57600080fd5b82018360208201111561044f57600080fd5b8035906020019184600183028401116401000000008311171561047157600080fd5b91908080601f016020809104026020016040519081016040528093929190818152602001838380828437600081840152601f19601f8201169050808301925050505050505091929192905050506108d4565b005b60006060806000841180156104dc57506001548411155b61054e576040517f08c379a00000000000000000000000000000000000000000000000000000000081526004018080602001828103825260138152602001807f496e76616c696420736869706d656e742049440000000000000000000000000081525060200191505060405180910390fd5b610556610986565b60008086815260200190815260200160002060405180606001604052908160008201548152602001600182018054600181600116156101000203166002900480601f0160208091040260200160405190810160405280929190818152602001828054600181600116156101000203166002900480156106165780601f106105eb57610100808354040283529160200191610616565b820191906000526020600020905b8154815290600101906020018083116105f957829003601f168201915b50505050508152602001600282018054600181600116156101000203166002900480601f0160208091040260200160405190810160405280929190818152602001828054600181600116156101000203166002900480156106b85780601f1061068d576101008083540402835291602001916106b8565b820191906000526020600020905b81548152906001019060200180831161069b57829003601f168201915b5050505050815250509050806000015181602001518260400151819150809050935093509350509193909250565b6000602052806000526040600020600091509050806000015490806001018054600181600116156101000203166002900480601f0160208091040260200160405190810160405280929190818152602001828054600181600116156101000203166002900480156107985780601f1061076d57610100808354040283529160200191610798565b820191906000526020600020905b81548152906001019060200180831161077b57829003601f168201915b505050505090806002018054600181600116156101000203166002900480601f0160208091040260200160405190810160405280929190818152602001828054600181600116156101000203166002900480156108365780601f1061080b57610100808354040283529160200191610836565b820191906000526020600020905b81548152906001019060200180831161081957829003601f168201915b5050505050905083565b600160008154809291906001019190505550604051806060016040528060015481526020018381526020018281525060008060015481526020019081526020016000206000820151816000015560208201518160010190805190602001906108a99291906109a7565b5060408201518160020190805190602001906108c69291906109a7565b509050505050565b60015481565b6000821180156108e657506001548211155b610958576040517f08c379a00000000000000000000000000000000000000000000000000000000081526004018080602001828103825260138152602001807f496e76616c696420736869706d656e742049440000000000000000000000000081525060200191505060405180910390fd5b806000808481526020019081526020016000206002019080519060200190610981929190610a27565b505050565b60405180606001604052806000815260200160608152602001606081525090565b828054600181600116156101000203166002900490600052602060002090601f016020900481019282601f106109e857805160ff1916838001178555610a16565b82800160010185558215610a16579182015b82811115610a155782518255916020019190600101906109fa565b5b509050610a239190610aa7565b5090565b828054600181600116156101000203166002900490600052602060002090601f016020900481019282601f10610a6857805160ff1916838001178555610a96565b82800160010185558215610a96579182015b82811115610a95578251825591602001919060010190610a7a565b5b509050610aa39190610aa7565b5090565b610ac991905b80821115610ac5576000816000905550600101610aad565b5090565b9056fea265627a7a7231582093565844d80e1a3644c4f7755440e26920b727dcfc0d195f926f245e6893e98d64736f6c63430005100032",
  "source": "pragma solidity ^0.5.16;\n\ncontract ShipmentContract {\n    struct Shipment {\n        uint id;\n        string trackingNumber;\n        string status; // Pending, Shipped, Delivered\n    }\n\n    mapping(uint => Shipment) public shipments;\n    uint public shipmentCount;\n\n    function createShipment(string memory _trackingNumber, string memory _status) public {\n        shipmentCount++;\n        shipments[shipmentCount] = Shipment(shipmentCount, _trackingNumber, _status);\n    }\n\n\n    function updateStatus(uint _id, string memory _status) public {\n        require(_id > 0 && _id <= shipmentCount, \"Invalid shipment ID\");\n        shipments[_id].status = _status;\n    }\n\n    function getShipment(uint _id) public view returns (uint, string memory, string memory) {\n        require(_id > 0 && _id <= shipmentCount, \"Invalid shipment ID\");\n        Shipment memory shipment = shipments[_id];\n        return (shipment.id, shipment.trackingNumber, shipment.status);\n    }\n}\n",
  "sourcePath": "/Users/I526523/Downloads/BITS NOTES/BlockChain/automotive-erp-blockchain/backend/contracts/ShipmentContract.sol",
  "compiler": {
    "name": "solc",
    "version": "0.5.16+commit.9c3226ce.Emscripten.clang"
  },
  "schemaVersion": "3.4.16",
  "updatedAt": "2024-10-31T11:42:56.439Z",
  "networkType": "ethereum",
  "devdoc": {
    "methods": {}
  },
  "userdoc": {
    "methods": {}
  }
}